:020000020000FC
:100000000FE50DBF02E00EBF0FEF0ABB08BB0027D4
:100010000BBB01E70F9309E70F930EE50F9309E37D
:100020000F930CE70F9307E70F930FE60F930FE77C
:100030000F9307E00F930DE70F930DE60F9306E67E
:100040000F930FE40F930BE50F9306E00F930FE36D
:100050000F93CDB7DEB7219666B36F70FE01BB2755
:10006000E60FFB1F708187E0A1E0972F9A2311F024
:1000700093E001C091E004D0AA0F8A95B1F7ECCFCC
:1000800015E00BB30A2B0BBB092F0FD00A95E9F72C
:100090000BB3A0950A23A0950BBB08E2091B05D062
:1000A0000A95E9F71A9569F7089524EA2A95F1F770
:0400B00000000895AF
:00000001FF
