:020000020000FC
:1000000006C03DC0C0F9A4B0999282F880900FE577
:100010000DBF02E00EBF0FEF0ABB04BB002707BBFA
:100020000FEF08BB8A98929A02E005BF00E40BBF6D
:100030003FD07894B09905C021E04FD05AD0B09B02
:10004000FDCFB19905C022E048D053D0B19BFDCF80
:10005000B29905C023E041D04CD0B29BFDCFB399FB
:1000600005C024E03AD045D0B39BFDCFB49905C07C
:1000700025E033D03ED0B49BFDCF3BD0DBCF01D0C9
:100080001895E199FECF00270FBB0EBB2DBBE29A5E
:10009000E19AE199FECF01E00EBB3DBBE29AE19A05
:1000A000E199FECF02E00EBB4DBBE29AE19A0895C2
:1000B000E199FECF00270FBB0EBBE09A2DB301E004
:1000C0000EBBE09A3DB302E00EBBE09A4DB32F3F6A
:1000D00019F421E030E041E0089543954A3011F4ED
:1000E00044273395333021F4403011F4332741E075
:1000F00008950FEF05BB022F1ED00BBB08E005BB18
:1001000021D00FEF05BB07E80BBB04E005BB1AD0FD
:100110000FEF05BB032F0FD00BBB02E005BB12D0C6
:100120000FEF05BB042F07D00BBB01E005BB0AD0C6
:100130000FEF05BB0895F0E0E4E0E00F08F4F3955D
:100140000491089518EC1A9500000000E1F7089555
:00000001FF
