:020000020000FC
:0600000012C027C03DC044
:1000240034C00FE50DBF02E00EBF0FEF0ABB00277F
:1000340007BB01BB0FEF08BB02BB0AE20BBB0FE01F
:1000440005BF00E404BF00EE0BBF7894FFCF06B3F6
:100054000370003041F0023039F0013051F00BB33D
:1000640013E001270BBB18950BB30C7F02600BBB8D
:1000740018950BB30C7F01600BBB1895B39B1895B7
:100084000BB31CE001270BBB1895B49B05C00BB345
:100094000F7C00610BBB18950BB30F7C00620BBB8C
:0200A4001895AD
:00000001FF
