:1000000014C02EC02DC02CC02BC02AC02AC028C0AE
:1000100027C026C025C024C023C022C021C020C0C4
:100020001FC01EC01DC01CC01BC011241FBECFE5B9
:10003000D2E0DEBFCDBF10E0A0E6B0E0EEE9F1E037
:1000400002C005900D92A236B107D9F710E0A2E6E2
:10005000B0E001C01D92A336B107E1F776D09DC094
:10006000CFCF1F920F920FB60F9211248F939F93B1
:10007000AF93BF93EF93FF93DF93CF93CDB7DEB7EB
:1000800080916200882339F4ABE3B0E0EBE3F0E069
:10009000808181608C9390916200809160009817BC
:1000A00039F4ABE3B0E0EBE3F0E080818E7F8C933A
:1000B000809162008F5F809362008091620088323D
:1000C00010F010926200CF91DF91FF91EF91BF91FC
:1000D000AF919F918F910F900FBE0F901F90189529
:1000E000DF93CF93CDB7DEB7AAE3B0E0EAE3F0E069
:1000F000808181608C93ABE3B0E0EBE3F0E0808142
:100100008E7F8C93A1E3B0E0E1E3F0E080818F711A
:100110008C93A2E3B0E0E2E3F0E08081806E8C9308
:10012000EFE4F0E01082EEE4F0E089E08083EAE4BE
:10013000F0E083EF91E091838083E9E5F0E080E1F6
:1001400080837894CF91DF910895DF93CF93CDB7DB
:10015000DEB7C6DFE0E3F0E08081882F90E08072B8
:100160009070009721F482E080936000F3CFE0E389
:10017000F0E08081882F90E080749070009721F4E7
:1001800083E080936000E6CFE0E3F0E080818823A5
:0E0190000CF384E080936000DDCFF894FFCF85
:02019E0003005C
:00000001FF
