:1000000014C02EC02DC02CC02BC02AC029C028C0AF
:1000100027C026C025C024C023C022C021C020C0C4
:1000200030C01EC01DC01CC01BC011241FBECFE5A8
:10003000D2E0DEBFCDBF10E0A0E6B0E0ECEEF0E035
:1000400002C005900D92A036B107D9F710E0A0E6E6
:10005000B0E001C01D92A036B107E1F73BD044C02B
:10006000CFCFDF93CF93CDB7DEB7E4E3F0E08FEFF0
:100070008083E8E2F0E088E080837894CF91DF919C
:1000800008951F920F920FB60F9211248F93EF9342
:10009000FF93DF93CF93CDB7DEB7E3E3F0E080814A
:1000A000893329F4E5E3F0E080E4808309C0E3E3E9
:1000B000F0E08081803421F4E5E3F0E089E380839F
:1000C000CF91DF91FF91EF918F910F900FBE0F9025
:1000D0001F901895DF93CF93CDB7DEB7C2DFE5E36E
:0C00E000F0E080E48083FFCFF894FFCFB5
:00000001FF
