:020000020000FC
:0200000009C035
:100012001EC00FE50DBF02E00EBF0FEF0ABB04BB0F
:100022000EE8002E00EC102E06EC202E08E8302EF2
:100032002227FF2701E003BF01E009BF789401D026
:10004200FFCF11E0EE27002D15BB0BBB0895FBBBC4
:10005200110F1031D9F0E395E03031F0E13031F099
:10006200E23031F0E33031F0002D05C0012D03C044
:10007200022D01C0032D15BB0BBB239531F42227A2
:10008200002D012C122C232C302E1895DADFFDCFF7
:00000001FF
