:020000020000FC
:020000000EC030
:0400100020C123C127
:10001C001BC10FE50DBF02E00EBF0FEF07BB04BB0A
:10002C0001BB0DEE06B900E207B932E033BF32E096
:10003C003EBD35E039BF789421E0FF27E0E04FEF7B
:10004C0005BB002399F00C3190F00F3188F003328E
:10005C0080F0083278F00F3270F00A3368F00B340D
:10006C0060F00B3658F0003C50F00AC0DCC009C000
:10007C001DC031C045C059C06DC081C095C0A9C05C
:10008C00BDC0403009F4DCCFF894FF93EF93F2E05D
:10009C00E4E7059015902590359045905590659026
:1000AC007490EF91FF91789440E0CACF413009F4FD
:1000BC00C7CFF894FF93EF93F2E0ECE7059015901F
:1000CC00259035904590559065907490EF91FF91E7
:1000DC00789441E0B5CF423009F4B2CFF894FF9355
:1000EC00EF93F2E0E4E8059015902590359045905B
:1000FC00559065907490EF91FF91789442E0A0CF69
:10010C00433009F49DCFF894FF93EF93F2E0ECE8C1
:10011C00059015902590359045905590659074906C
:10012C00EF91FF91789443E08BCF443009F488CF62
:10013C00F894FF93EF93F2E0E4E905901590259085
:10014C0035904590559065907490EF91FF9178940F
:10015C0044E076CF453009F473CFF894FF93EF93D6
:10016C00F2E0ECE90590159025903590459055906E
:10017C0065907490EF91FF91789445E061CF463093
:10018C0009F45ECFF894FF93EF93F2E0E4EA059064
:10019C001590259035904590559065907490EF9101
:1001AC00FF91789446E04CCF473009F449CFF8944E
:1001BC00FF93EF93F2E0ECEA0590159025903590C3
:1001CC004590559065907490EF91FF91789447E02D
:1001DC0037CF483009F434CFF894FF93EF93F2E023
:1001EC00E4EB0590159025903590459055906590D1
:1001FC007490EF91FF91789448E022CF493009F444
:10020C001FCFF894FF93EF93F2E0ECEB0590159071
:10021C00259035904590559065907490EF91FF9195
:10022C00789449E00DCF4F3F59F0F89400241124F5
:10023C0022243324442455246624772478944FEFC5
:10024C00002705BBFDCE189514B105B11895F8BB68
:10025C003191220F28F0209522BB209538BB1895A0
:10026C0021E0E0E03191F7CF007C8282827C0000BB
:10027C00002242FE020200000042868A92620000C6
:10028C0000448292926C00000008182848FE00007E
:10029C0000F49292928C0000007C9292924C00009E
:1002AC0000808E90A0C00000006C9292926C0000B6
:0802BC0000649292927C0000A4
:00000001FF
